:060000000A128A11EC2F28
:100EA400313432343334F001F1017108803AFF00F7
:100EB40081307F02031D602FF43070020318080094
:100EC4000130F0070318F10A0030F107572FF20040
:100ED400831203138510051185110A128A115527EF
:100EE4000A128A11831203138515720888000A12E4
:100EF4008A1155278312031385110800F200831207
:100F040003138514051185110A128A1155270A1233
:100F14008A11831203138515720888000A128A1134
:100F240055278312031385110800831603138501C3
:100F34008801831203138501880106308316031385
:100F44009F000F300A128A1169270A128A11013090
:100F54000A128A1169270A128A1138300A128A1170
:100F6400692708000A128A1197270A128A110A129D
:100F74008A1155270A128A117808F3007908F400B7
:100F84007A08F500F601F7017708803AFF0080300F
:100F94007F02031DCF2F033076020318EB2F760850
:100FA400733E840000080A128A1180270A128A11EB
:100FB4000130F6070318F70A0030F7077708803A7C
:100FC400FF0080307F02031DE92F03307602031CEB
:100FD400D12FEB2F0A128A1152270A128A11F80014
:100FE4000A128A1153270A128A11F9000A128A1165
:0C0FF4005427FA0083010A128A11B42F5E
:02400E00323F3F
:00000001FF
